{
  "contractName": "VotingSystem",
  "abi": [
    {
      "anonymous": false,
      "inputs": [
        {
          "indexed": false,
          "internalType": "uint256",
          "name": "electionId",
          "type": "uint256"
        },
        {
          "indexed": false,
          "internalType": "string",
          "name": "name",
          "type": "string"
        },
        {
          "indexed": false,
          "internalType": "uint256",
          "name": "endTime",
          "type": "uint256"
        }
      ],
      "name": "ElectionCreated",
      "type": "event"
    },
    {
      "anonymous": false,
      "inputs": [
        {
          "indexed": false,
          "internalType": "uint256",
          "name": "electionId",
          "type": "uint256"
        }
      ],
      "name": "ElectionEnded",
      "type": "event"
    },
    {
      "anonymous": false,
      "inputs": [
        {
          "indexed": false,
          "internalType": "uint256",
          "name": "electionId",
          "type": "uint256"
        },
        {
          "indexed": false,
          "internalType": "string",
          "name": "candidate",
          "type": "string"
        }
      ],
      "name": "VoteCasted",
      "type": "event"
    },
    {
      "inputs": [
        {
          "internalType": "uint256",
          "name": "",
          "type": "uint256"
        }
      ],
      "name": "elections",
      "outputs": [
        {
          "internalType": "string",
          "name": "name",
          "type": "string"
        },
        {
          "internalType": "uint256",
          "name": "endTime",
          "type": "uint256"
        },
        {
          "internalType": "bool",
          "name": "isEnded",
          "type": "bool"
        }
      ],
      "stateMutability": "view",
      "type": "function",
      "constant": true
    },
    {
      "inputs": [
        {
          "internalType": "string",
          "name": "_name",
          "type": "string"
        },
        {
          "internalType": "string[]",
          "name": "_candidates",
          "type": "string[]"
        },
        {
          "internalType": "uint256",
          "name": "_durationInMinutes",
          "type": "uint256"
        }
      ],
      "name": "createElection",
      "outputs": [],
      "stateMutability": "nonpayable",
      "type": "function"
    },
    {
      "inputs": [
        {
          "internalType": "uint256",
          "name": "_electionId",
          "type": "uint256"
        },
        {
          "internalType": "string",
          "name": "_candidate",
          "type": "string"
        }
      ],
      "name": "vote",
      "outputs": [],
      "stateMutability": "nonpayable",
      "type": "function"
    },
    {
      "inputs": [
        {
          "internalType": "uint256",
          "name": "_electionId",
          "type": "uint256"
        }
      ],
      "name": "endElection",
      "outputs": [],
      "stateMutability": "nonpayable",
      "type": "function"
    },
    {
      "inputs": [
        {
          "internalType": "uint256",
          "name": "_electionId",
          "type": "uint256"
        }
      ],
      "name": "getElectionResults",
      "outputs": [
        {
          "internalType": "string[]",
          "name": "",
          "type": "string[]"
        },
        {
          "internalType": "uint256[]",
          "name": "",
          "type": "uint256[]"
        }
      ],
      "stateMutability": "view",
      "type": "function",
      "constant": true
    },
    {
      "inputs": [
        {
          "internalType": "uint256",
          "name": "_electionId",
          "type": "uint256"
        }
      ],
      "name": "getElectionDetails",
      "outputs": [
        {
          "internalType": "string",
          "name": "name",
          "type": "string"
        },
        {
          "internalType": "string[]",
          "name": "candidates",
          "type": "string[]"
        },
        {
          "internalType": "uint256",
          "name": "endTime",
          "type": "uint256"
        },
        {
          "internalType": "bool",
          "name": "isEnded",
          "type": "bool"
        }
      ],
      "stateMutability": "view",
      "type": "function",
      "constant": true
    },
    {
      "inputs": [],
      "name": "getElectionCount",
      "outputs": [
        {
          "internalType": "uint256",
          "name": "",
          "type": "uint256"
        }
      ],
      "stateMutability": "view",
      "type": "function",
      "constant": true
    }
  ],
  "bytecode": "0x608060405234801561001057600080fd5b50611be4806100206000396000f3fe608060405234801561001057600080fd5b506004361061007d5760003560e01c80639c98bcbb1161005b5780639c98bcbb146100ee578063b31dc8751461010a578063e8ededa614610126578063f6049924146101575761007d565b8063213785a01461008257806324108475146100a05780635e6fef01146100bc575b600080fd5b61008a61018a565b604051610097919061174d565b60405180910390f35b6100ba60048036038101906100b5919061107f565b610196565b005b6100d660048036038101906100d19190611056565b6104f8565b6040516100e59392919061162f565b60405180910390f35b61010860048036038101906101039190611056565b6105c7565b005b610124600480360381019061011f9190610fd7565b610749565b005b610140600480360381019061013b9190611056565b610833565b60405161014e9291906115a5565b60405180910390f35b610171600480360381019061016c9190611056565b610b46565b60405161018194939291906115dc565b60405180910390f35b60008080549050905090565b60008054905082106101dd576040517f08c379a00000000000000000000000000000000000000000000000000000000081526004016101d4906116ad565b60405180910390fd5b6000808381548110610218577f4e487b7100000000000000000000000000000000000000000000000000000000600052603260045260246000fd5b906000526020600020906006020190508060040160003373ffffffffffffffffffffffffffffffffffffffff1673ffffffffffffffffffffffffffffffffffffffff16815260200190815260200160002060009054906101000a900460ff16156102b7576040517f08c379a00000000000000000000000000000000000000000000000000000000081526004016102ae9061172d565b60405180910390fd5b8060030160009054906101000a900460ff1615610309576040517f08c379a00000000000000000000000000000000000000000000000000000000081526004016103009061166d565b60405180910390fd5b8060020154421115610350576040517f08c379a00000000000000000000000000000000000000000000000000000000081526004016103479061166d565b60405180910390fd5b6000805b82600101805490508110156103e85783805190602001208360010182815481106103a7577f4e487b7100000000000000000000000000000000000000000000000000000000600052603260045260246000fd5b906000526020600020016040516103be9190611560565b604051809103902014156103d557600191506103e8565b80806103e090611ab0565b915050610354565b5080610429576040517f08c379a00000000000000000000000000000000000000000000000000000000081526004016104209061168d565b60405180910390fd5b60018260040160003373ffffffffffffffffffffffffffffffffffffffff1673ffffffffffffffffffffffffffffffffffffffff16815260200190815260200160002060006101000a81548160ff02191690831515021790555081600501836040516104959190611577565b908152602001604051809103902060008154809291906104b490611ab0565b91905055507fd57a54a90de6646eabe1f2e15a6bc2ed0e21b88900d99655b8a914435afc5bc884846040516104ea929190611768565b60405180910390a150505050565b6000818154811061050857600080fd5b906000526020600020906006020160009150905080600001805461052b90611a7e565b80601f016020809104026020016040519081016040528092919081815260200182805461055790611a7e565b80156105a45780601f10610579576101008083540402835291602001916105a4565b820191906000526020600020905b81548152906001019060200180831161058757829003601f168201915b5050505050908060020154908060030160009054906101000a900460ff16905083565b600080549050811061060e576040517f08c379a0000000000000000000000000000000000000000000000000000000008152600401610605906116ad565b60405180910390fd5b6000808281548110610649577f4e487b7100000000000000000000000000000000000000000000000000000000600052603260045260246000fd5b906000526020600020906006020190508060030160009054906101000a900460ff16156106ab576040517f08c379a00000000000000000000000000000000000000000000000000000000081526004016106a2906116cd565b60405180910390fd5b806002015442116106f1576040517f08c379a00000000000000000000000000000000000000000000000000000000081526004016106e89061170d565b60405180910390fd5b60018160030160006101000a81548160ff0219169083151502179055507f562cd572b2ba3b666cd989fc4ca98419ec81e75f04528df9d9d76fdb7807ee718260405161073d919061174d565b60405180910390a15050565b6000603c826107589190611998565b426107639190611942565b90506000806001816001815401808255809150500390600052602060002090600602019050848160000190805190602001906107a0929190610d6c565b50838160010190805190602001906107b9929190610df2565b5081816002018190555060008160030160006101000a81548160ff0219169083151502179055507f43131521170c5b80ffe9526cfec987f5a24eb1f6c4bda47c41a5e4b8388afe5c600160008054905061081391906119f2565b868460405161082493929190611798565b60405180910390a15050505050565b606080600080549050831061087d576040517f08c379a0000000000000000000000000000000000000000000000000000000008152600401610874906116ad565b60405180910390fd5b60008084815481106108b8577f4e487b7100000000000000000000000000000000000000000000000000000000600052603260045260246000fd5b906000526020600020906006020190508060030160009054906101000a900460ff16610919576040517f08c379a0000000000000000000000000000000000000000000000000000000008152600401610910906116ed565b60405180910390fd5b60008160010180549050905060008167ffffffffffffffff811115610967577f4e487b7100000000000000000000000000000000000000000000000000000000600052604160045260246000fd5b6040519080825280602002602001820160405280156109955781602001602082028036833780820191505090505b50905060005b82811015610a6157836005018460010182815481106109e3577f4e487b7100000000000000000000000000000000000000000000000000000000600052603260045260246000fd5b906000526020600020016040516109fa919061158e565b908152602001604051809103902054828281518110610a42577f4e487b7100000000000000000000000000000000000000000000000000000000600052603260045260246000fd5b6020026020010181815250508080610a5990611ab0565b91505061099b565b50826001018181805480602002602001604051908101604052809291908181526020016000905b82821015610b34578382906000526020600020018054610aa790611a7e565b80601f0160208091040260200160405190810160405280929190818152602001828054610ad390611a7e565b8015610b205780601f10610af557610100808354040283529160200191610b20565b820191906000526020600020905b815481529060010190602001808311610b0357829003601f168201915b505050505081526020019060010190610a88565b50505050915094509450505050915091565b6060806000806000805490508510610b93576040517f08c379a0000000000000000000000000000000000000000000000000000000008152600401610b8a906116ad565b60405180910390fd5b6000808681548110610bce577f4e487b7100000000000000000000000000000000000000000000000000000000600052603260045260246000fd5b90600052602060002090600602019050806000018160010182600201548360030160009054906101000a900460ff16838054610c0990611a7e565b80601f0160208091040260200160405190810160405280929190818152602001828054610c3590611a7e565b8015610c825780601f10610c5757610100808354040283529160200191610c82565b820191906000526020600020905b815481529060010190602001808311610c6557829003601f168201915b5050505050935082805480602002602001604051908101604052809291908181526020016000905b82821015610d56578382906000526020600020018054610cc990611a7e565b80601f0160208091040260200160405190810160405280929190818152602001828054610cf590611a7e565b8015610d425780601f10610d1757610100808354040283529160200191610d42565b820191906000526020600020905b815481529060010190602001808311610d2557829003601f168201915b505050505081526020019060010190610caa565b5050505092509450945094509450509193509193565b828054610d7890611a7e565b90600052602060002090601f016020900481019282610d9a5760008555610de1565b82601f10610db357805160ff1916838001178555610de1565b82800160010185558215610de1579182015b82811115610de0578251825591602001919060010190610dc5565b5b509050610dee9190610e52565b5090565b828054828255906000526020600020908101928215610e41579160200282015b82811115610e40578251829080519060200190610e30929190610d6c565b5091602001919060010190610e12565b5b509050610e4e9190610e6f565b5090565b5b80821115610e6b576000816000905550600101610e53565b5090565b5b80821115610e8f5760008181610e869190610e93565b50600101610e70565b5090565b508054610e9f90611a7e565b6000825580601f10610eb15750610ed0565b601f016020900490600052602060002090810190610ecf9190610e52565b5b50565b6000610ee6610ee184611807565b6117d6565b9050808382526020820190508260005b85811015610f265781358501610f0c8882610f98565b845260208401935060208301925050600181019050610ef6565b5050509392505050565b6000610f43610f3e84611833565b6117d6565b905082815260208101848484011115610f5b57600080fd5b610f66848285611a3c565b509392505050565b600082601f830112610f7f57600080fd5b8135610f8f848260208601610ed3565b91505092915050565b600082601f830112610fa957600080fd5b8135610fb9848260208601610f30565b91505092915050565b600081359050610fd181611b97565b92915050565b600080600060608486031215610fec57600080fd5b600084013567ffffffffffffffff81111561100657600080fd5b61101286828701610f98565b935050602084013567ffffffffffffffff81111561102f57600080fd5b61103b86828701610f6e565b925050604061104c86828701610fc2565b9150509250925092565b60006020828403121561106857600080fd5b600061107684828501610fc2565b91505092915050565b6000806040838503121561109257600080fd5b60006110a085828601610fc2565b925050602083013567ffffffffffffffff8111156110bd57600080fd5b6110c985828601610f98565b9150509250929050565b60006110df8383611260565b905092915050565b60006110f38383611542565b60208301905092915050565b600061110a826118ad565b61111481856118e8565b93508360208202850161112685611863565b8060005b85811015611162578484038952815161114385826110d3565b945061114e836118ce565b925060208a0199505060018101905061112a565b50829750879550505050505092915050565b600061117f826118b8565b61118981856118f9565b935061119483611873565b8060005b838110156111c55781516111ac88826110e7565b97506111b7836118db565b925050600181019050611198565b5085935050505092915050565b6111db81611a26565b82525050565b600081546111ee81611a7e565b6111f8818661190a565b94506001821660008114611213576001811461122457611257565b60ff19831686528186019350611257565b61122d85611883565b60005b8381101561124f57815481890152600182019150602081019050611230565b838801955050505b50505092915050565b600061126b826118c3565b6112758185611915565b9350611285818560208601611a4b565b61128e81611b86565b840191505092915050565b60006112a4826118c3565b6112ae8185611926565b93506112be818560208601611a4b565b6112c781611b86565b840191505092915050565b60006112dd826118c3565b6112e78185611937565b93506112f7818560208601611a4b565b80840191505092915050565b6000815461131081611a7e565b61131a8186611937565b94506001821660008114611335576001811461134657611379565b60ff19831686528186019350611379565b61134f85611898565b60005b8381101561137157815481890152600182019150602081019050611352565b838801955050505b50505092915050565b600061138f601283611926565b91507f456c656374696f6e2068617320656e64656400000000000000000000000000006000830152602082019050919050565b60006113cf601183611926565b91507f496e76616c69642063616e6469646174650000000000000000000000000000006000830152602082019050919050565b600061140f601383611926565b91507f496e76616c696420656c656374696f6e204944000000000000000000000000006000830152602082019050919050565b600061144f601a83611926565b91507f456c656374696f6e2068617320616c726561647920656e6465640000000000006000830152602082019050919050565b600061148f601a83611926565b91507f456c656374696f6e20686173206e6f7420656e646564207965740000000000006000830152602082019050919050565b60006114cf601983611926565b91507f456c656374696f6e206973207374696c6c206f6e676f696e67000000000000006000830152602082019050919050565b600061150f601683611926565b91507f596f75206861766520616c726561647920766f746564000000000000000000006000830152602082019050919050565b61154b81611a32565b82525050565b61155a81611a32565b82525050565b600061156c82846111e1565b915081905092915050565b600061158382846112d2565b915081905092915050565b600061159a8284611303565b915081905092915050565b600060408201905081810360008301526115bf81856110ff565b905081810360208301526115d38184611174565b90509392505050565b600060808201905081810360008301526115f68187611299565b9050818103602083015261160a81866110ff565b90506116196040830185611551565b61162660608301846111d2565b95945050505050565b600060608201905081810360008301526116498186611299565b90506116586020830185611551565b61166560408301846111d2565b949350505050565b6000602082019050818103600083015261168681611382565b9050919050565b600060208201905081810360008301526116a6816113c2565b9050919050565b600060208201905081810360008301526116c681611402565b9050919050565b600060208201905081810360008301526116e681611442565b9050919050565b6000602082019050818103600083015261170681611482565b9050919050565b60006020820190508181036000830152611726816114c2565b9050919050565b6000602082019050818103600083015261174681611502565b9050919050565b60006020820190506117626000830184611551565b92915050565b600060408201905061177d6000830185611551565b818103602083015261178f8184611299565b90509392505050565b60006060820190506117ad6000830186611551565b81810360208301526117bf8185611299565b90506117ce6040830184611551565b949350505050565b6000604051905081810181811067ffffffffffffffff821117156117fd576117fc611b57565b5b8060405250919050565b600067ffffffffffffffff82111561182257611821611b57565b5b602082029050602081019050919050565b600067ffffffffffffffff82111561184e5761184d611b57565b5b601f19601f8301169050602081019050919050565b6000819050602082019050919050565b6000819050602082019050919050565b60008190508160005260206000209050919050565b60008190508160005260206000209050919050565b600081519050919050565b600081519050919050565b600081519050919050565b6000602082019050919050565b6000602082019050919050565b600082825260208201905092915050565b600082825260208201905092915050565b600081905092915050565b600082825260208201905092915050565b600082825260208201905092915050565b600081905092915050565b600061194d82611a32565b915061195883611a32565b9250827fffffffffffffffffffffffffffffffffffffffffffffffffffffffffffffffff0382111561198d5761198c611af9565b5b828201905092915050565b60006119a382611a32565b91506119ae83611a32565b9250817fffffffffffffffffffffffffffffffffffffffffffffffffffffffffffffffff04831182151516156119e7576119e6611af9565b5b828202905092915050565b60006119fd82611a32565b9150611a0883611a32565b925082821015611a1b57611a1a611af9565b5b828203905092915050565b60008115159050919050565b6000819050919050565b82818337600083830152505050565b60005b83811015611a69578082015181840152602081019050611a4e565b83811115611a78576000848401525b50505050565b60006002820490506001821680611a9657607f821691505b60208210811415611aaa57611aa9611b28565b5b50919050565b6000611abb82611a32565b91507fffffffffffffffffffffffffffffffffffffffffffffffffffffffffffffffff821415611aee57611aed611af9565b5b600182019050919050565b7f4e487b7100000000000000000000000000000000000000000000000000000000600052601160045260246000fd5b7f4e487b7100000000000000000000000000000000000000000000000000000000600052602260045260246000fd5b7f4e487b7100000000000000000000000000000000000000000000000000000000600052604160045260246000fd5b6000601f19601f8301169050919050565b611ba081611a32565b8114611bab57600080fd5b5056fea264697066735822122040a75d52e1429a0624c1c9def348f7d75fade1b3870c7592f70cbb894014718164736f6c63430008000033",
  "immutableReferences": {},
  "source": "// SPDX-License-Identifier: MIT\r\npragma solidity ^0.8.0;\r\n\r\ncontract VotingSystem {\r\n    struct Election {\r\n        string name;\r\n        string[] candidates;\r\n        uint256 endTime;\r\n        bool isEnded;\r\n        mapping(address => bool) voters;\r\n        mapping(string => uint256) votesReceived;\r\n    }\r\n\r\n    Election[] public elections;\r\n\r\n    event ElectionCreated(uint256 electionId, string name, uint256 endTime);\r\n    event VoteCasted(uint256 electionId, string candidate);\r\n    event ElectionEnded(uint256 electionId);\r\n\r\n    function createElection(string memory _name, string[] memory _candidates, uint256 _durationInMinutes) public {\r\n        uint256 endTime = block.timestamp + (_durationInMinutes * 1 minutes);\r\n        Election storage newElection = elections.push();\r\n        newElection.name = _name;\r\n        newElection.candidates = _candidates;\r\n        newElection.endTime = endTime;\r\n        newElection.isEnded = false;\r\n\r\n        emit ElectionCreated(elections.length - 1, _name, endTime);\r\n    }\r\n\r\n    function vote(uint256 _electionId, string memory _candidate) public {\r\n    require(_electionId < elections.length, \"Invalid election ID\");\r\n    Election storage election = elections[_electionId];\r\n    require(!election.voters[msg.sender], \"You have already voted\");\r\n    require(!election.isEnded, \"Election has ended\");\r\n    require(block.timestamp <= election.endTime, \"Election has ended\");\r\n\r\n    bool isValidCandidate = false;\r\n    for (uint256 i = 0; i < election.candidates.length; i++) {\r\n        if (keccak256(bytes(election.candidates[i])) == keccak256(bytes(_candidate))) {\r\n            isValidCandidate = true;\r\n            break;\r\n        }\r\n    }\r\n    require(isValidCandidate, \"Invalid candidate\");\r\n\r\n    election.voters[msg.sender] = true;\r\n    election.votesReceived[_candidate]++;\r\n\r\n    emit VoteCasted(_electionId, _candidate);\r\n}\r\n\r\n\r\n    function endElection(uint256 _electionId) public {\r\n        require(_electionId < elections.length, \"Invalid election ID\");\r\n        Election storage election = elections[_electionId];\r\n        require(!election.isEnded, \"Election has already ended\");\r\n        require(block.timestamp > election.endTime, \"Election is still ongoing\");\r\n\r\n        election.isEnded = true;\r\n\r\n        emit ElectionEnded(_electionId);\r\n    }\r\n\r\n    function getElectionResults(uint256 _electionId) \r\n    public \r\n    view \r\n    returns (string[] memory, uint256[] memory) \r\n{\r\n    require(_electionId < elections.length, \"Invalid election ID\");\r\n    Election storage election = elections[_electionId];\r\n    require(election.isEnded, \"Election has not ended yet\");\r\n\r\n    uint256 candidatesLength = election.candidates.length;\r\n    uint256[] memory votes = new uint256[](candidatesLength);\r\n\r\n    for (uint256 i = 0; i < candidatesLength; i++) {\r\n        votes[i] = election.votesReceived[election.candidates[i]];\r\n    }\r\n\r\n    return (election.candidates, votes);\r\n}\r\n\r\n\r\n    function getElectionDetails(uint256 _electionId) \r\n    public \r\n    view \r\n    returns (string memory name, string[] memory candidates, uint256 endTime, bool isEnded) \r\n{\r\n    require(_electionId < elections.length, \"Invalid election ID\");\r\n    Election storage election = elections[_electionId];\r\n    return (election.name, election.candidates, election.endTime, election.isEnded);\r\n}\r\n\r\n\r\n    // Function to get the number of elections\r\n    function getElectionCount() public view returns (uint) {\r\n        return elections.length;\r\n    }\r\n}",
  "sourcePath": "C:\\Users\\admin\\Documents\\VotingBackend\\truffle\\contracts\\VotingSystem.sol",
  "compiler": {
    "name": "solc",
    "version": "0.8.0+commit.c7dfd78e.Emscripten.clang"
  },
  "schemaVersion": "3.4.16",
  "updatedAt": "2025-01-31T08:37:01.897Z",
  "networkType": "ethereum",
  "devdoc": {
    "kind": "dev",
    "methods": {},
    "version": 1
  },
  "userdoc": {
    "kind": "user",
    "methods": {},
    "version": 1
  }
}